:020000040800F2
:10000000080900206914000885020008870200081A
:100010008B0200088F020008930200080000000015
:10002000000000000000000000000000970200082F
:1000300099020008000000009B0200089D020008D1
:100040008314000883140008831400088314000834
:100050008314000883140008831400088314000824
:100060008314000883140008831400088314000814
:100070008314000883140008831400088314000804
:1000800083140008831400088314000883140008F4
:10009000250D000883140008831400088314000849
:1000A00083140008831400088314000883140008D4
:1000B000F90D0008CF060008B507000883140008F2
:1000C00083140008831400088314000883140008B4
:1000D000831400088314000883140008DF13000849
:1000E0008314000883140008831400088314000894
:1000F0008314000883140008831400088314000884
:100100008314000883140008910900088314000870
:1001100083140008831400085F0A0008AD0A000871
:100120008314000883140008831400088314000853
:10013000DFF80CD003F07EFD004800479501000871
:10014000080900202DE9F0470446204603F095FCFD
:1001500081464549484603F0E3FB81464FF087411D
:10016000484603F0ABFB824603F0A0FC07464FF085
:1001700066323E4B03F012FC054603F0AAFC8146B2
:10018000484603F07FFC85B22946394802F038FE24
:10019000BDE8F08708B501F05BF84FF4165001F0A8
:1001A000D0F800F09DFE4FF4C06001F0F3FE41F680
:1001B0001F410A2000F0F6FD0021FF2000F083F926
:1001C00041F61F41642000F0D4F941F61F410A2096
:1001D00000F0FCF941F61F411E2000F020FA2549ED
:1001E000098888B241F61F4100F042FA00F048F950
:1001F00000200C2302220721009000F09DFC40F219
:100200007121042001F00EF82CE001F01DF800F03F
:1002100034FF00F0A8FF18480078C0F3401028B958
:10022000642001F052F8042000F001FD124800782B
:10023000C0F3001090B111480078401C0F490870BD
:10024000084600781E2801D1002008700C490B4A8E
:10025000127831F81200FFF775FF03E008490888AB
:10026000FFF770FFD1E700000000C84266660A4051
:1002700000040040580100200A0200201D00002058
:1002800018010020704700BFFEE700BFFEE700BF77
:10029000FEE700BFFEE770477047704770470000F9
:1002A0000CB50020019000906C48006840F480304C
:1002B0006A49086000BF6948006800F40030009097
:1002C0000198401C0190009818B90198B0F5A06FF2
:1002D000F1D16248006800F4003010B101200090B4
:1002E00001E0002000900098012843D15C4800689C
:1002F00040F010005A4908600846006820F00300EA
:1003000008600846006840F00200086053484068F2
:10031000524948600846406848600846406840F4D2
:10032000806048600846406820F47C1048600846B9
:10033000406840F4E81048600846006840F080706B
:10034000086000BF4548006800F000700028F9D040
:100350004248406820F00300404948600846406831
:1003600040F00200486000BF3C48406800F00C00CC
:100370000828F9D10CBD10B5FFF792FF10BD10B5DC
:100380003648006840F0010034490860084640687B
:1003900034490840314948600846006832490840FD
:1003A0002E4908600846006820F48020086008464E
:1003B000406820F4FE0048604FF41F008860FFF79B
:1003C000DAFF4FF000602949086010BD10B5002128
:1003D00000200022214B5B6803F00C0121B10429AD
:1003E00006D0082928D107E0214B224C236027E0C2
:1003F0001F4B204C236023E0184B5B6803F4701004
:10040000164B5B6803F48032022303EB904022B961
:10041000194B4343174C23600DE0104B5B6803F40A
:10042000003323B1144B4343124C236003E0104BC1
:100430004343104C236003E00D4B0E4C236000BF80
:1004400000BF064B5B68C3F303130C4CE15C094B24
:100450001B68CB40074C236010BD00000010024019
:10046000002002400000FFF8FFFFF6FE08ED00E06C
:1004700000127A006001002000093D0064010020A4
:1004800038B500241CE0FE4800EBC4008088ADF8BD
:10049000000010208DF8030003208DF80200F849B9
:1004A00051F83400694601F051F8F54A02EBC402F4
:1004B0009188F34A52F8340001F0F7F8601CC4B296
:1004C0000A2CE0DB38BD30B589B005460C46012169
:1004D000022001F004FB0121042001F0F3FA402086
:1004E000ADF8200018208DF8230003208DF822009D
:1004F00008A9E44801F02AF8ADF81850ADF8144006
:100500000020ADF81A00ADF8160005A9DE4801F08C
:1005100083FE7020ADF800000120ADF8020000203D
:10052000ADF806000220ADF808006946D64801F093
:10053000B0FE1D208DF8100001208DF811008DF8FF
:1005400012008DF8130004A801F029FD0121CF4805
:1005500002F0CAF90821CD4802F0EAFA0122114658
:10056000C94802F0D0F90121C74802F0B1F909B039
:1005700030BD7FB505460C460121042001F0AFFADD
:10058000ADF80850ADF804400020ADF80A00ADF811
:10059000060001A9BD4801F03FFE1E208DF80000B5
:1005A00001208DF8010002208DF8020001208DF855
:1005B0000300684601F0F3FC01221146B34802F043
:1005C000A2F90121B14802F083F97FBD7FB505464C
:1005D0000C460121082001F082FAADF80850ADF870
:1005E00004400020ADF80A00ADF8060001A9A848B3
:1005F00001F012FE32208DF8000001208DF801007C
:1006000003208DF8020001208DF80300684601F0F8
:10061000C6FC012211469E4802F075F97FBD7FB5E8
:1006200005460C460121102001F059FAADF808509A
:10063000ADF804400020ADF80A00ADF8060001A9AD
:10064000944801F0E9FD36208DF8000001208DF876
:10065000010004208DF8020001208DF80300684697
:1006600001F09DFC012211468A4802F04CF97FBD41
:100670007FB505460C460121202001F030FAADF887
:100680000850ADF804400020ADF80A00ADF80600AF
:100690008DF80C0001A9804801F0BEFD01217E48C3
:1006A00002F016FA37208DF8000001208DF80100C5
:1006B00005208DF8020001208DF80300684601F046
:1006C0006EFC01221146744802F01DF97FBD10B581
:1006D00001216D4802F0C5FB01286AD101216A4859
:1006E00002F0D0FB6D480078C0F30010002860D005
:1006F0006B480068401C6A4908606A48007850B33B
:1007000008460068B0F5FA6F04D11021664800F081
:10071000CAFF20E062480068B0F57A6F04D120215A
:10072000614800F0C0FF16E05D48006841F270715A
:10073000884204D110215C4800F0B7FF0BE0584814
:100740000068B0F5FA5F06D1002055490860202105
:10075000554800F0AAFF5348007840B95048006857
:10076000B0F5FA6F04D120214F4800F09CFF20E043
:100770004B480068B0F57A6F04D110214A4800F068
:1007800092FF16E04648006841F27071884204D139
:100790002021454800F089FF0BE041480068B0F592
:1007A000FA5F06D100203E49086010213E4800F063
:1007B0007CFF10BD10B500240121344802F051FB2C
:1007C000012877D139480068401C3849086008463C
:1007D0000068C82801D10020086001212B4802F0E0
:1007E00051FB00F0F2FB044604F0100000287DD01D
:1007F00004F0010000286BD02D480088401E2C49D1
:10080000088008460088012801D102200880284875
:100810000088022805D14F201F492C3108801D492E
:10082000888523480088032805D11E201A492C31C9
:100830000880184988851E480088042805D10C20A6
:1008400015492C31088013498885194800880528E6
:1008500005D10B2010492C3108800E498885144899
:100860000088062805D109200B492C310880094948
:1008700088850F480088072821D1062006491AE0FC
:1008800094010020000801400004004000080040DE
:10089000000C004000100040001400400A0200203C
:1008A0007C01002091010020001001408001002007
:1008B000000200206BE02C3108809649888596481C
:1008C0000088082804D1052094490880914988852A
:1008D00004F0020000284BD08F480088401C8E494D
:1008E000088008460088092803D100E040E008207D
:1008F000088089480088022804D14F208749088051
:100900008449888584480088032804D11E208349AF
:1009100008808049888580480088042804D10C20FC
:100920007E4908807B4988857B480088052804D15A
:100930000B207A49088077498885774800880628FF
:1009400004D1092075490880724988857248008859
:10095000072804D10620714908806E4988856E48B1
:100960000088082804D105206C49088069498885D9
:1009700004F0400058B104F0010010B101206849B2
:10098000087004F0020010B100206549087010BD25
:1009900010B50121634802F064FA01285ED10121FB
:1009A000604802F06FFA60480068401C5E490860C9
:1009B0005B48007838B308460068642804D10221F7
:1009C0005A4800F070FE1EE057480068C82804D15D
:1009D0000121564800F067FE15E053480068B0F565
:1009E000967F04D10221514800F05FFE0BE04E4893
:1009F0000068B0F5C87F06D100204B49086001218E
:100A00004A4800F052FE4648007838BB4648006825
:100A1000642804D10121454800F045FE1EE042480B
:100A20000068C82804D10221404800F03CFE15E0CF
:100A30003D480068B0F5967F04D101213B4800F0A5
:100A400034FE0BE038480068B0F5C87F06D10020BE
:100A5000354908600221354800F027FE10BD10B569
:100A600001212C4802F0FDF901281ED1012129485D
:100A700002F008FA2E480068401C2D49086008461C
:100A80000068052805D14FF48051284800F00BFE7E
:100A90000BE027480068FA2807D1002024490860A5
:100AA0004FF48051214800F000FE10BD10B5012127
:100AB0001A482C3802F0D5F9012829D1012117480C
:100AC0002C3802F0DFF91B480068401C1949086007
:100AD0000846006805280AD14FF40051134800F079
:100AE000E2FD4FF48041114800F0DDFD10E01148B7
:100AF0000068FA280CD100200E4908604FF400511C
:100B00000A4800F0D2FD4FF48041084800F0CDFDC6
:100B100010BD000000100040000200202C14004016
:100B200091010020000C004084010020000C0140D5
:100B3000880100208C0100202DE9F0418AB0044694
:100B40000D4616461F46DDF840800121042000F0C6
:100B5000B9FF0121480600F0C2FF4FF48050ADF804
:100B6000240003208DF8260018208DF8270009A9FD
:100B7000854800F0EBFC4FF40060ADF824004820FD
:100B80008DF8270009A9804800F0E0FC00208DF8CE
:100B90001E0001208DF81F0000208DF820008DF828
:100BA00021008DF822008DF823008DF81A808DF831
:100BB0001B408DF81C608DF81D50ADF8187006A90B
:100BC000724802F07CF900208DF812008DF81300B5
:100BD00001208DF814000020ADF8080040F6C47024
:100BE000ADF80A004FF6FF70ADF80C00ADF80E003E
:100BF0000020ADF8100001208DF8150002A802F0C9
:100C0000E8F901220221614802F0E2FC14208DF88B
:100C1000040001208DF805008DF806008DF807000E
:100C200001A801F0BCF900200AB0BDE8F0812DE96F
:100C3000F047064600250027A846142003F08EF84A
:100C40000446606820F0F85000F1807060606068D1
:100C500020F4780000F578006060606820F4E020FF
:100C60006060606820F47F4000F544506060606818
:100C700020F0FF006060A6720020607204202072E5
:100C800043484449097810F821704249097830F8FE
:100C90002100C0F30728E77284F80C801F216173DC
:100CA0003D480178A1733D480078C0F3401018B961
:100CB00000203849087004E036480078401C354967
:100CC000087035480078401C334908703148007876
:100CD0003D2802D100202F4908702F480078FF28B6
:100CE00002D100202C4908702146284802F060FA01
:100CF0008146002500E06D1C4946244802F0F0FAC8
:100D000018B940F6FF708542F5D3204602F0FEFF89
:100D1000002440F6FF70854202D30120BDE8F08731
:100D20000020FBE710B586B001AA0021174802F0A9
:100D300034FB002406E00DF10F00005D1849085552
:100D4000601CC4B2082CF6DB06B010BD30B585B00F
:100D5000054600210D4802F0A3FB10B9002005B0A4
:100D600030BD6A460021094802F017FB002405E067
:100D70000DF10B00005D2855601CC4B2082CF7DB98
:100D80009DF80A00EBE70000000801400064004005
:100D900020000020E4010020E50100200A020020DC
:100DA000E60100207FB505460C460121084600F00B
:100DB00096FEADF80850ADF804400020ADF80A00EA
:100DC000ADF8060001A94FF0804001F025FA1C2083
:100DD0008DF8000001208DF8010000208DF8020040
:100DE00001208DF80300684601F0D9F80122114670
:100DF000900701F088FD7FBD10B50121880702F042
:100E000030F8012863D10121800702F03BF8304817
:100E10000088401C2E4908802E480088401C2D491F
:100E200008802B480088052805D100202849088023
:100E30000420FFF7FCFE2848007810B325480088FE
:100E4000052803D11021254800F02DFC21480088F9
:100E50000A2803D12021214800F025FC1D480088E4
:100E60000F2803D110211D4800F01FFC19480088ED
:100E7000142806D10020174908802021174800F0C7
:100E800014FC1548007810BB12480088052803D1CF
:100E90002021124800F007FC0E4800880A2803D1E0
:100EA00010210E4800F0FFFB0A4800880F2803D1EC
:100EB00020210A4800F0F9FB06480088142806D1D2
:100EC0000020044908801021044800F0EEFB10BD0A
:100ED000FA010020FC0100209101002000080140DF
:100EE00008B501213C2000F0EDFD0121084600F08D
:100EF000E9FD0121C04800F0FAFB4FF48070ADF825
:100F0000000028208DF803006946BC4800F01EFB55
:100F10002020ADF8000028208DF803006946B7486E
:100F200000F014FB1020ADF8000028208DF803001D
:100F30006946B24800F00AFB0420ADF80000282002
:100F40008DF803006946AE4800F000FB4FF4805076
:100F5000ADF8000028208DF803006946A94800F08C
:100F6000F5FA0820ADF8000028208DF80300694646
:100F7000A24800F0EBFA4FF40050ADF80000482012
:100F80008DF8030069469F4800F0E0FA4FF40070C6
:100F9000ADF8000048208DF803006946974800F03E
:100FA000D5FA08BD10B54FF40051964800F061FB2A
:100FB00008B944F001044FF40071904800F059FB67
:100FC00008B944F00204204610BD70B50024002585
:100FD000FFF7E8FF04468C48007830B101280BD0B9
:100FE000022819D0032845D13CE024B18748047079
:100FF0000120854908703DE084480078844207D18B
:101000000220814908708148007840F0200502E004
:1010100000207D4908702DE07C48007884420AD089
:101020000020794908707A4908807848007840F0B3
:101030001005284670BD75480078844211D1744867
:101040000088401C7249088008460088642808DB34
:101050000020088003206C49087044F040052846B1
:10106000E8E707E069480078844202D0002066493A
:10107000087000BF00BF0020DCE710B54FF480719E
:101080005E4800F0F6FA38B16248007820F00100BE
:10109000401C6049087005E05E48007820F00100BF
:1010A0005C4908702021554800F0E3FA38B15948EE
:1010B000007820F00200801C5649087005E0554871
:1010C000007820F002005349087010214B4800F0CE
:1010D000D0FA38B14F48007820F00400001D4D4987
:1010E000087005E04B48007820F00400494908707A
:1010F0000821424800F0BDFA38B14648007820F097
:10110000080008304349087005E04248007820F0A4
:101110000800404908700421394800F0AAFA38B1A3
:101120003C48007820F0100010303A49087005E083
:101130003848007820F01000364908704FF480518C
:10114000304800F096FA38B13248007820F020009C
:1011500020303049087005E02E48007820F020004B
:101160002C49087010BD10B52A48007800F0010025
:1011700020B10121284801F0ABFB03E00021264803
:1011800001F0A6FB23480078C0F3400020B1012104
:10119000224801F09DFB03E00021204801F098FB6C
:1011A0001C480078C0F3800020B101211C4801F0E8
:1011B0008FFB03E000211A4801F08AFB15480078F4
:1011C000C0F3C00020B10121154801F081FB03E00C
:1011D0000021134801F07CFB0E480078C0F340105A
:1011E00020B10121880701F073FB04E000214FF0DA
:1011F000804001F06DFB10BD00023000000C01408A
:1012000000140140001001400E02002012020020D4
:10121000100200200A0200200014004000100040CC
:10122000000C004070B505460C4645F2555002F0E2
:1012300025FB284602F025FB204602F025FB02F0A4
:1012400026FB02F029FB70BD10B502F020FB10BD9B
:1012500010B56FF0040000F0ECFE2E4800682E4937
:10126000B0FBF1F02D4908700846007800EB400112
:10127000C1EBC0104FF6FF7101EAC0002849088099
:1012800010BD0146254A12784A434FF0E0235A61C7
:1012900000229A611A46126942F001021A6100BFE7
:1012A0004FF0E022106900F001021AB100F4803220
:1012B000002AF5D04FF0E022126922F001024FF02F
:1012C000E0231A6100229A6170470146144A12888D
:1012D0004A434FF0E0235A6100229A611A4612698C
:1012E00042F001021A6100BF4FF0E022106900F0E5
:1012F00001021AB100F48032002AF5D04FF0E0224A
:10130000126922F001024FF0E0231A6100229A6173
:10131000704700006001002000127A0014020020D3
:1013200016020020014600BF704700BF4A4A1288DB
:1013300002F04002002AF9D0C2B2474B1B1D1A80AE
:10134000704710B586B004460121082000F0BAFBB2
:101350000121880400F0C3FB4FF48060ADF8140055
:1013600003208DF8160018208DF8170005A93B48BA
:1013700000F0ECF84FF40060ADF8140004208DF894
:10138000170005A9354800F0E1F827208DF8000086
:1013900001208DF801008DF802008DF803006846E9
:1013A00000F0FDFD01940020ADF80800ADF80A0042
:1013B000ADF80C00ADF810000C20ADF80E0001A93E
:1013C000254800F026FC012240F22551224800F079
:1013D000B8FC0121204800F0A8FC06B010BD10B5F3
:1013E00040F225511C4800F091FD10B31A4800F05E
:1013F0000DFDC4B21A48008800F40040C8B918486E
:10140000008800F4804060B10A2C03D00020144909
:10141000088020E01248008840F40040104908800D
:1014200019E00D2C06D10E48008840F480400C498C
:10143000088010E00A480088C0F30D0009490C54E8
:1014400007480088401C0649088008460088C728CD
:1014500001DD0020088010BD00480040000C014064
:101460001C0200203C020020064880470648004736
:10147000FEE7FEE7FEE7FEE7FEE7FEE7FEE7FEE744
:10148000FEE7FEE77F0300083101000810B50446BF
:10149000CC48844208D10121042000F02DFB00211A
:1014A000042000F029FB46E0C748844208D101210E
:1014B000082000F021FB0021082000F01DFB3AE08D
:1014C000C248844208D10121102000F015FB002100
:1014D000102000F011FB2EE0BD48844208D101210C
:1014E000202000F009FB0021202000F005FB22E075
:1014F000B848844208D10121402000F0FDFA0021C3
:10150000402000F0F9FA16E0B348844208D10121E6
:10151000802000F0F1FA0021802000F0EDFA0AE0CE
:10152000AE48844207D10121801500F0E5FA002180
:10153000A01500F0E1FA10BD10B50121084600F039
:10154000DBFA0021012000F0D7FA10BD2DE9F041AF
:10155000024600250026002000230024002791F8E1
:1015600003C00CF00F0591F803C00CF0100CBCF197
:10157000000F03D091F802C04CEA050591F800C0B5
:10158000BCF1000F31D0146800202BE04FF0010CAB
:101590000CFA00F3B1F800C00CEA03069E4220D119
:1015A00083004FF00F0C0CFA03F7BC4305FA03FC61
:1015B0004CEA040491F803C0BCF1280F06D14FF0A7
:1015C000010C0CFA00FCC2F814C00AE091F803C048
:1015D000BCF1480F05D14FF0010C0CFA00FCC2F829
:1015E00010C0401C0828D1D31460B1F800C0BCF171
:1015F000FF0F34DD546800202EE000F1080C4FF09E
:10160000010808FA0CF3B1F800C00CEA03069E4288
:1016100021D183004FF00F0C0CFA03F7BC4305FAFD
:1016200003FC4CEA040491F803C0BCF1280F05D177
:1016300000F1080C08FA0CF8C2F8148091F803C005
:10164000BCF1480F07D100F1080C4FF0010808FA6F
:101650000CF8C2F81080401C0828CED35460BDE8B6
:10166000F0814FF6FF710180022181700421C17069
:1016700070470246002093680B400BB1012000E048
:10168000002070470146886880B2704702460020FB
:10169000D3680B400BB1012000E0002070470146E9
:1016A000C86880B2704701617047416170470AB1F4
:1016B000016100E041617047C16070474FF48032C2
:1016C0000A43826181618261826982697047024650
:1016D0000020434B18684FF68073184040EA021010
:1016E00008433F4B186070473E49C8617047F0B5EA
:1016F0000A46002300240021002500F00046B6F130
:10170000004F02D1364EF16901E0354E7168C0F3E9
:10171000034583B200F44016B6F5401F08D121F00E
:1017200070612F4E766826F070662D4F7E6012E055
:1017300000F48016B6F5801F06D1032606FA05F4DC
:10174000A14341F0706106E0460D360103FA06F64A
:10175000B14341F0706122B1460D360103FA06F63D
:10176000314300F00046B6F1004F02D11C4EF1614A
:1017700001E01B4E7160F0BD30B500228B071C0FDD
:101780000F2303FA04F2164B08338C1053F824305D
:101790009343134C08348D1044F8253023468C10A5
:1017A00053F824308C07240F00FA04F423430C4C24
:1017B00008348D1044F8253030BD0A49DC3108600A
:1017C0007047000000080140000C0140001001407B
:1017D0000014014000180140001C0140002001409D
:1017E0000000014000002042DF48006840F0010096
:1017F000DD49086008464068DC490840DA4948602D
:1018000008460068DA490840D74908600846006879
:1018100020F4802008600846406820F4FE004860FC
:101820004FF41F0088607047CF49096821F4803168
:10183000CD4A11601146096821F480211160B0F58C
:10184000803F03D0B0F5802F0ED106E0C64909686D
:1018500041F48031C44A116007E0C349096841F48A
:10186000A021C14A116000E000BF00BF704710B561
:1018700001460022002300204A11012A02D1BA4C5D
:10188000236806E0022A02D1B74C236A01E0B64C75
:10189000636A01F01F02012494401C400CB1012036
:1018A00000E0002010BD38B5002000900024002585
:1018B00000BF3120FFF7DBFF05460098401C009079
:1018C0000098B0F5A06F01D0002DF2D03120FFF7C5
:1018D000CEFF08B1012400E00024204638BD0146B7
:1018E0000020A14A106820F0F80040EAC100106012
:1018F0007047A04908607047024600209A4B58681C
:1019000020F47C1042EA01031843974B586070475B
:1019100098490866704701460020934A506820F0B5
:1019200003000843506070478F48406800F00C0087
:101930007047014600208C4A506820F0F0000843B0
:101940005060704701460020874A506820F4E060EC
:1019500008435060704701460020834A506820F4D5
:10196000605040EAC1005060704729B17E4A527A07
:1019700002437D4B5A7204E07B4A527A82437A4B8F
:101980005A7270477B49D831086070470146002081
:10199000754A506820F44040084350607047002169
:1019A000714A20321170704A82F82010012802D04A
:1019B00004280AD104E001216B4A2032117005E0AD
:1019C0000521694A2032117000E000BF00BF704756
:1019D0006949086070476449096A0143624A1162B3
:1019E0007047654944390860704730B500210022CE
:1019F000002400235C4D6D6805F00C0121B1042921
:101A000005D0082923D105E05C4D056022E05B4D3F
:101A100005601FE0544D6D6805F47012524D6D68FD
:101A200005F48034022505EB92421CB9544D554310
:101A300005600BE04C4D6D6805F400351DB1504D4F
:101A40005543056002E04D4D5543056002E04B4DA6
:101A5000056000BF00BF444D6D6805F0F001090945
:101A6000484D6B5C0568DD4045603F4D6D6805F491
:101A7000E061090A434D6B5C4568DD4085603A4D85
:101A80006D6805F46051C90A3E4D6B5C4568DD40E8
:101A9000C560354D6D6805F44041890B3A4D6B5C6E
:101AA000C568B5FBF3F5056130BD29B12E4A526911
:101AB00002432D4B5A6104E02B4A526982432A4B60
:101AC0005A61704729B1284A92690243264B9A61AC
:101AD00004E0254A92698243234B9A61704729B1F9
:101AE000214AD2690243204BDA6104E01E4AD269DE
:101AF00082431D4BDA61704729B11B4AD268024309
:101B0000194BDA6004E0184AD2688243164BDA6057
:101B1000704729B1144A12690243134B1A6104E059
:101B2000114A12698243104B1A61704712494039B9
:101B3000086070470F49C86470470B49C871704707
:101B40000948406A40F08070074948627047014682
:101B50000020054A92680A400AB1012000E00020F6
:101B60007047014988727047001002400000FFF87A
:101B7000FFFFF6FE000042428004424200127A005B
:101B800000093D001E0200202E02002010B5044670
:101B9000FB48844209D101218803FFF7ADFF0021F2
:101BA0004FF48040FFF7A8FF32E0F648844209D1A5
:101BB00001214804FFF7ADFF00214FF40030FFF78B
:101BC000A8FF25E0F048844209D101218804FFF7ED
:101BD000A0FF00214FF48020FFF79BFF18E0EB48A7
:101BE000844209D10121C804FFF793FF00214FF47B
:101BF0000020FFF78EFF0BE0E548844208D1012169
:101C00000805FFF786FF00214FF48010FFF781FFE2
:101C100010BD2DE9F04786B005460E460024A246C9
:101C200000BFA1460027B08900B100BF2F462C8A13
:101C30004CF6FF700440F08804432C82AC894EF6C9
:101C4000F3100440B0883189084371890843044384
:101C5000AC81AC8A4FF6FF400440B0890443AC82AB
:101C600001A8FFF7C2FEC648874202D1DDF810A0E6
:101C700001E0DDF80CA0A88900F4004040B10AEBB7
:101C8000CA0000EB0A1031684900B0FBF1F807E028
:101C90000AEBCA0000EB0A1031688900B0FBF1F8CA
:101CA0006420B8FBF0F004012009642101FB1089D5
:101CB000A88900F4004040B1322000EBC900B0FB1D
:101CC000F1F000F00700044308E0322000EB0910B7
:101CD0006421B0FBF1F000F00F0004432C8106B04A
:101CE000BDE8F0874FF41651016000218180C1806A
:101CF00001810C21418100218181704710B502468C
:101D00000020108A4FF2FF0318400B884C882343B1
:101D10008C882343CC8823431843108210BD0021B4
:101D2000018041808180C180704721B1828942F465
:101D30000052828104E082894DF6FF731A4082814D
:101D40007047F0B50346002400260025002040F629
:101D50006A17B94200D100BF1846C1F3421401F01E
:101D60001F06012707FA06F5012C01D10C3004E00B
:101D7000022C01D1103000E014301AB107682F4353
:101D8000076002E00768AF430760F0BD1AB1838ABD
:101D90000B43838202E0838A8B4383827047028AEB
:101DA0004FF6F0731A400282028A0A430282704799
:101DB00082894FF2FF731A40828182890A438281AD
:101DC000704721B1828942F00202828104E0828957
:101DD0004FF6FD731A4082817047028A4FF6DF7317
:101DE0001A400282028A0A430282704721B1028AA3
:101DF00042F48042028204E0028A4BF6FF731A40EA
:101E000002827047C1F308028280704701468888C9
:101E1000C0F308007047818941F00101818170475A
:101E2000028BD2B20283028B42EA01220283704704
:101E3000028B02F47F420283028B0A4302837047C3
:101E400021B1828A42F02002828204E0828A4FF627
:101E5000DF731A408282704721B1828A42F01002F9
:101E6000828204E0828A4FF6EF731A4082827047C2
:101E700021B1828A42F00802828204E0828A4FF60F
:101E8000F7731A408282704721B1828942F400427E
:101E9000828103E08289C2F30E028281704721B100
:101EA000828A42F40062828204E0828A4FF2FF73E7
:101EB0001A4082827047828A4FF6FB731A408282F0
:101EC000828A0A438282704721B1828A42F00202EA
:101ED000828204E0828A4FF6FD731A408282704744
:101EE00002460020B1F5007F00D100BF13880B40EF
:101EF0000BB1012000E00020704701F40072B2F540
:101F0000007F00D100BFCA430280704770B502460F
:101F1000002400230025002040F66A16B14200D1BB
:101F200000BFC1F3421501F01F03012606FA03F3B7
:101F3000012D02D19689334006E0022D02D1168A86
:101F4000334001E0968A33400C12012606FA04F46D
:101F50001688344013B10CB1012000E0002070BDA0
:101F600010B50022002340F66A14A14200D100BF40
:101F70000A1201249440A3B2DC43048010BD000087
:101F8000003801400044004000480040004C004040
:101F90000050004031490143314A1160704770B52B
:101FA000002100230F22C47804B32D4C246804F4CC
:101FB000E064C4F5E064210AC1F10403CA40447836
:101FC00004FA03F18478144021430901254C067872
:101FD000A155047804F01F050124AC4005786D116B
:101FE000AD0005F1E025C5F8004109E0047804F0F2
:101FF0001F050124AC401C4D0678761145F826409B
:1020000070BD1A4A0A400243154B1B1F1A607047E5
:1020100039B1134A121D12680243114B1B1D1A607D
:1020200006E00F4A121D126882430D4B1B1D1A60F9
:102030007047042808D14FF0E021096941F00401FC
:102040004FF0E022116107E04FF0E021096921F033
:1020500004014FF0E0221161704700000000FA0512
:102060000CED00E000E400E080E100E080FFFF1FF5
:1020700010B50446FE48844208D10121C014FFF780
:102080003BFD0021E014FFF737FDC4E0B4F1804FC1
:1020900008D101210846FFF73CFD00210120FFF790
:1020A00038FDB8E0F348844208D101210220FFF74F
:1020B00030FD00210220FFF72CFDACE0EE48844209
:1020C00008D101210420FFF724FD00210420FFF79F
:1020D00020FDA0E0E948844208D101210820FFF753
:1020E00018FD00210820FFF714FD94E0E448844225
:1020F00008D101211020FFF70CFD00211020FFF76F
:1021000008FD88E0DF48844208D101212020FFF744
:1021100000FD00212020FFF7FCFC7CE0DA4884422F
:1021200008D101214014FFF7E7FC00216014FFF7FC
:10213000E3FC70E0D548844209D10121C804FFF7CF
:10214000DBFC00214FF40020FFF7D6FC63E0D04811
:10215000844209D101210805FFF7CEFC00214FF48C
:102160008010FFF7C9FC56E0CA48844209D101211A
:102170004805FFF7C1FC00214FF40010FFF7BCFC3D
:1021800049E0C548844208D101214020FFF7C1FC45
:1021900000214020FFF7BDFC3DE0C048844208D14B
:1021A00001218020FFF7B5FC00218020FFF7B1FC62
:1021B00031E0BB48844208D101218015FFF7A9FC1A
:1021C0000021A015FFF7A5FC25E0B648844209D1FF
:1021D00001210804FFF790FC00214FF48030FFF745
:1021E0008BFC18E0B048844209D101214804FFF774
:1021F00083FC00214FF40030FFF77EFC0BE0AB487E
:10220000844208D101218804FFF776FC00214FF4B5
:102210008020FFF771FC10BD00220288944B984289
:102220000ED0994B98420BD0B0F1804F08D0914B13
:10223000984205D0904B984202D0904B984204D1DE
:102240004FF68F731A404B881A438D4B984207D034
:102250008C4B984204D04FF6FF431A40CB881A4368
:1022600002808B8883850B880385814B98420BD035
:10227000854B984208D08B4B984205D08A4B9842A8
:1022800002D08A4B984201D10B7A038601238382C4
:10229000704770B5002400220023058C4FF6FE76AF
:1022A00035400584028C8388048B4FF68F752C4053
:1022B000B51E2C400D882C43751E2A400D892A43DB
:1022C0004D882A436A4DA8420BD06F4DA84208D0D2
:1022D000744DA84205D0744DA84202D0734DA84257
:1022E00013D14FF6F7752A404D892A434FF6FB75F7
:1022F0002A408D882A434FF6FF652B404FF6FF5545
:102300002B408D892B43CD892B4383800483CD883B
:102310008586028470BD70B5002400220023058CE0
:102320004FF6EF7635400584028C8388048B48F69F
:10233000FF752C404FF6FF452C400D884FF6FF7679
:1023400006EA05252C434FF6DF752A400D8906EA7B
:1023500005152A434D8806EA05152A43444DA8422F
:1023600002D0494DA8421DD14FF67F752A404D89B4
:102370004FF6FF7606EA05152A434FF6BF752A4049
:102380008D8806EA05152A434FF6FF352B404FF29C
:10239000FF752B408D8906EA85052B43CD8906EA1A
:1023A00085052B4383800483CD880587028470BD17
:1023B00070B5002400220023058C4FF6FF663540DF
:1023C0000584028C8388848B4FF68F752C404FF6E2
:1023D000FC752C400D882C434FF6FF552A400D8983
:1023E0004FF6FF7606EA05252A434D8806EA0525BD
:1023F0002A431F4DA84202D0234DA8421DD14FF2BF
:10240000FF752A404D894FF6FF7606EA05252A43D7
:102410004FF6FF352A408D8806EA05252A434EF6F9
:10242000FF752B404DF6FF752B408D8906EA05158B
:102430002B43CD8906EA05152B4383808483CD8801
:102440008587028470BD70B5002200230024058CAE
:102450004EF6FF7635400584038C8488828B48F6DF
:10246000FF752A404FF6FF452A400D8820E0000006
:10247000002C01400004004000080040000C004017
:10248000001000400014004000340140004C0140A6
:10249000005001400054014000180040001C004062
:1024A000002000400040014000440140004801403D
:1024B0004FF6FF7606EA05252A434DF6FF752B40B9
:1024C0000D8906EA05352B434D8806EA05352B4371
:1024D000FA4DA84202D0FA4DA84208D14BF6FF753A
:1024E0002C408D894FF6FF7606EA85152C438480B3
:1024F0008283CD88A0F84050038470BD828B4FF258
:10250000FF331A408283828B4FF6FF7303EA012365
:102510001A4382837047F0B50C461546002200210D
:102520000026078C4EF6FF7C07EA0C070784828B97
:10253000018C4FF6FF7707EA043640F6FF473A4032
:102540004FF6FF7707EA05273A434FF6FF7707EA8A
:1025500003373A43D94FB8420ED0D94FB8420BD0C7
:10256000B0F1804F08D0D74FB84205D0D64FB8420F
:1025700002D0D64FB84206D14DF6FF77394046F427
:102580008057394305E047F6FF57394044F48057F8
:10259000394382830184F0BD828B4FF6F3731A4076
:1025A0008283828B0A4382837047F0B50C461546BE
:1025B000002200210026078C4FF6FF6C07EA0C076B
:1025C0000784828B018C4FF6FF7707EA04264FF6CB
:1025D0000C773A404FF6FF7707EA03172F433A4349
:1025E000B64FB8420ED0B64FB8420BD0B0F1804FC4
:1025F00008D0B44FB84205D0B34FB84202D0B34F61
:10260000B84206D14FF6FF57394046F48077394338
:1026100005E04FF2FF57394044F480773943828315
:102620000184F0BD028B4FF2FF331A400283028B0C
:102630004FF6FF7303EA01231A4302837047F0B594
:102640000C461546002200210026078C4FF6EF7C31
:1026500007EA0C070784028B018C4FF6FF7707EA25
:10266000041640F6FF473A404FF6FF7707EA033774
:102670003A434FF6FF7707EA05273A438F4FB842B0
:102680000ED08F4FB8420BD0B0F1804F08D08D4F95
:10269000B84205D08C4FB84202D08C4FB84206D118
:1026A0004FF6DF77394046F01007394305E04FF623
:1026B0005F77394044F01007394302830184F0BD4D
:1026C000028B4FF6F3731A400283028B0A43028394
:1026D0007047F0B50C46154600220021068C4FF6D7
:1026E000FE773E400684028B018C4FF60C7632401A
:1026F0007E1C06EA03162E433243704EB0420ED0C3
:102700006F4EB0420BD0B0F1804F08D06D4EB0424A
:1027100005D06D4EB04202D06C4EB04206D14FF69D
:10272000FD76314044F00106314305E04FF6F57681
:10273000314044F00106314302830184F0BD70B59D
:1027400005460C465D4885420ED05D4885420BD05B
:10275000B5F1804F08D05B48854205D05A48854284
:1027600002D05A48854200D100E000BF208850B90D
:102770002389A28861882846FFF7ABFFE1882846B5
:10278000FFF79EFF25E0208804280AD12389A2882C
:1027900061882846FFF753FFE1882846FFF742FF8C
:1027A00017E0208808280AD12389A2886188284652
:1027B000FFF7FBFEE1882846FFF7EEFE09E02389DC
:1027C000A28861882846FFF7A6FEE1882846FFF721
:1027D00095FE70BD2DE9F04105460C460026012707
:1027E000608808B9022600E00026A088012801D1EF
:1027F000022700E001272088A0B92389A2886188E8
:102800002846FFF766FFE1882846FFF759FF23892E
:102810003A4631462846FFF712FFE1882846FFF77F
:1028200001FF13E02389A28861882846FFF707FF8C
:10283000E1882846FFF7F6FE23893A4631462846C6
:10284000FFF747FFE1882846FFF73AFFBDE8F08130
:102850000A884B881A438B881A43CB881A430B8902
:102860001A434B891A438B891A43A0F844207047B6
:102870004FF6FF71818000210180C180418001728B
:1028800070470021018041808180C18001814181A8
:102890008181C181704700210180418001218180B7
:1028A0000021C18001817047002101804180818029
:1028B000C18001814181818170470000002C01406D
:1028C000003401400004004000080040000C0040BB
:1028D00021B1028842F00102028004E002884FF632
:1028E000FE731A400280704731B1B0F8442042F4C0
:1028F0000042A0F8442005E0B0F84420C2F30E02E4
:10290000A0F8442070471AB183890B43838102E009
:1029100083898B43838170478182704741EA020338
:10292000A0F8483070471AB183890B43838102E0D5
:1029300083898B438381704701894FF6F872114078
:10294000018170470A46002101894FF68F731940B3
:1029500011430181704730B504460D462946204693
:10296000FFF7F0FF208940F00700208130BD2DE9FE
:10297000F04104460D4616461F46602D06D13B46E3
:10298000012231462046FFF75AFE05E03B46012270
:1029900031462046FFF79DFE29462046FFF7D2FF2D
:1029A000208940F007002081BDE8F08130B50C4659
:1029B00000210189C9B24FF6FF7505EA03251543C9
:1029C00025432943018130BD2DE9F04105460E46DE
:1029D00017469846002443463A4631462846FFF7B4
:1029E000E5FF2C894FF6F870044044F007044FF6D9
:1029F0008F70044044F070042C81BDE8F081F0B584
:102A000004460D4616461F463B463246294620469A
:102A1000FFF7CCFF208940F480402081F0BD018584
:102A2000828270470A46002101884FF68F73194051
:102A3000114301807047F0B50C4615461E46002133
:102A4000002200230189028B038C4FF6F87739406E
:102A500021434FF6FC473A4040F201173A434FF604
:102A6000DD773B404FF6FF7707EA06172F433B43DE
:102A7000018102830384F0BD0A460021018B4FF6D9
:102A80008F7319401143018370470A460021018B5F
:102A900048F6FF7319404FF6FF7303EA0223194308
:102AA000018370470A460021818B4FF68F731940CE
:102AB0001143818370470A460021818B48F6FF73DA
:102AC00019404FF6FF7303EA0223194381837047CD
:102AD00021B1028842F08002028004E002884FF6B1
:102AE0007F731A400280704721B1828842F004024D
:102AF000828004E082884FF6FB731A408280704720
:102B000021B1828842F00802828004E082884FF678
:102B1000F7731A408280704721B1828842F0010227
:102B2000828004E082884FF6FE731A4082807047EC
:102B30000A460021018B4FF6F773194011430183B8
:102B400070470A460021018B4FF2FF7319404FF680
:102B5000FF7303EA02231943018370470A460021E9
:102B6000818B4FF6F77319401143818370470A46F2
:102B70000021818B4FF2FF7319404FF6FF7303EA78
:102B800002231943818370470A460021018B4FF6C7
:102B9000FB7319401143018370470A460021018BE2
:102BA0004FF6FF3319404FF6FF7303EA0223194330
:102BB000018370470A460021818B4FF6FB73194051
:102BC0001143818370470A460021818B4FF6FF3302
:102BD00019404FF6FF7303EA0223194381837047BC
:102BE0000A460021018B4FF67F7319401143018380
:102BF00070470A460021018BC1F30E014FF6FF73A7
:102C000003EA02231943018370470A460021818B9E
:102C10004FF67F7319401143818370470A460021A4
:102C2000818BC1F30E014FF6FF7303EA02231943B0
:102C3000818370470A460021018C4FF6FD731940CD
:102C40001143018470470A460021018C4FF6F77347
:102C500019401143018470470A460021018C4FF648
:102C6000DF7319404FF6FF7303EA0213194301841F
:102C700070470A460021018C4FF67F7319404FF6CA
:102C8000FF7303EA02131943018470470A460021C7
:102C9000018C4FF6FF5319404FF6FF7303EA0223EE
:102CA0001943018470470A460021018C4FF2FF73DB
:102CB00019404FF6FF7303EA02231943018470475A
:102CC0000A460021018C4DF6FF7319404FF6FF7341
:102CD00003EA023319430184704730B5002301240D
:102CE0008C40A3B2048C9C430484048C02FA01F54A
:102CF000ADB22C43048430BD30B5002304248C4095
:102D0000A3B2048C9C430484048C02FA01F5ADB296
:102D10002C43048430BD70B50346002000241846BF
:102D2000183001258D40ACB21D8CA5431D8409B11E
:102D3000082909D100EB6100056825F070050560E0
:102D40000568154305600EE00D1FC5F34E052844C8
:102D5000056825F4E045056005684FF6FF7606EA4C
:102D600002263543056070BD21B1028842F002029F
:102D7000028004E002884FF6FD731A40028070471B
:102D800021B1028842F00402028004E002884FF67A
:102D9000FB731A400280704721B1828842F08002A2
:102DA000828004E082884FF67F731A4082807047E9
:102DB00002884FF6F7731A40028002880A430280A5
:102DC000704782884FF68F731A40828082880A4348
:102DD0008280704702894FF6F8731A400281028997
:102DE0000A430281704702894FF67F731A400281BD
:102DF00002890A4302817047818470478185704748
:102E0000818670470187704781877047A0F840101E
:102E1000704702884FF6FF431A40028002880A4337
:102E2000028070470146888E70470146088F7047C0
:102E30000146888F70470146B1F84000704701464F
:102E4000888C70470146088D704702460020138A1F
:102E50000B400BB1012000E000207047CA43028202
:102E6000704730B50246002000230024158A05EA89
:102E70000103958905EA010413B10CB1012000E0BA
:102E8000002030BDCA4302827047000010B50446DE
:102E9000FE48844209D101214806FEF73AFE00218E
:102EA0004FF00070FEF735FE08E001218806FEF7BE
:102EB00030FE00214FF08060FEF72BFE10BD30B5D4
:102EC000024600200023146824F0020414601468F1
:102ED00044F00104146000E05B1C546804F0010439
:102EE0001CB94FF6FF74A342F6D1546804F00104F4
:102EF0000CB900206CE08C79012C04D1146844F0EA
:102F00008004146003E0146824F080041460CC7919
:102F1000012C04D1146844F04004146003E01468E8
:102F200024F0400414600C7A012C04D1146844F09D
:102F30002004146003E0146824F0200414604C7A28
:102F4000012C04D1146844F01004146003E01468E8
:102F500024F0100414608C7A012C04D1146844F01D
:102F60000804146003E0146824F008041460CC7AA8
:102F7000012C04D1146844F00404146003E01468C4
:102F800024F0040414608C78A407CD7844EA056426
:102F90000D7944EA05444D7944EA05540D886D1EC7
:102FA0002C43D461146824F001041460002300E071
:102FB0005B1C546804F001041CB14FF6FF74A3427B
:102FC000F6D1546804F001040CB1002000E00120A7
:102FD00030BD10B50021837A012202FA03F1AC4A18
:102FE000126842F00102AA4B1A60A94A1C32126808
:102FF0008A43A74B1C331A60027BCAB9A44A0C321D
:1030000012688A43A24B0C331A604288C38842EA92
:1030100003439F4A4032847A42F8343002888388DE
:1030200042EA03439A4A4032847A02EBC402536074
:10303000027B012A19D1964A0C3212680A43944B3A
:103040000C331A604288038842EA0343904A4032B4
:10305000847A42F83430C288838842EA03438C4A37
:103060004032847A02EBC4025360C27A3AB9884A89
:10307000121D12688A43864B1B1D1A6006E0844AA3
:10308000121D12680A43824B1B1D1A60028932B955
:103090007F4A143212688A437D4B14331A600289C6
:1030A000012A06D17A4A143212680A43784B143343
:1030B0001A60427B012A06D1754A1C3212680A4303
:1030C000734B1C331A60724A126822F00102704B73
:1030D0001A6010BD00218171C1710172417281724B
:1030E000C1728170C17003210171022141710121FE
:1030F000018070476649096841F00101644A116026
:103100001146096843F60E729143614A11601146F7
:10311000096841EA002111601146096821F00101A6
:103120001160704721B1026842F48032026003E00E
:10313000026822F4803202607047E1B1026842F016
:10314000800202604FF4C272125842F480734FF44E
:10315000C27213504FF4CA72125842F480734FF483
:10316000CA7213504FF4D272125842F480734FF463
:10317000D27213501BE0026822F0800202604FF40A
:10318000C272125822F480734FF4C27213504FF47B
:10319000CA72125822F480734FF4CA7213504FF45B
:1031A000D272125822F480734FF4D27213507047C7
:1031B00010B502460020936803F08063B3F1806F7E
:1031C00000D110E0936803F00063B3F1006F01D108
:1031D000012008E0936803F08053B3F1805F01D1D0
:1031E000022000E00420042879D002F5C07303EB2C
:1031F00000131B6803F0010402F5C07303EB001316
:103200001C600B7A7BB94B7A0C8843EA445302F575
:10321000C07404EB00142468234302F5C07404EB6B
:103220000014236010E00B7A4C6843EAC4034C7A24
:10323000234302F5C07404EB00142468234302F511
:10324000C07404EB001423608B7A03F00F038B72BD
:1032500002F5C07303EB00135B6823F00F0402F563
:10326000C07303EB00135C6002F5C07303EB001343
:103270005B688C7A234302F5C07404EB001463602E
:103280008B7B1C064B7B44EA034403E00064004054
:10329000006600400B7B44EA0323CC7A234302F50B
:1032A000C07404EB0014A3608B7C1C064B7C44EAC6
:1032B00003440B7C44EA0323CC7B234302F5C07414
:1032C00004EB0014E36002F5C07303EB00131B680A
:1032D00043F0010402F5C07303EB00131C6010BD42
:1032E00010B50246002321B1012907D002290FD1D0
:1032F00009E09068F94C00EA04030BE09068F84C90
:1033000000EA040306E09068F64C00EA040301E0DA
:10331000002300BF00BFF44C181BA34216D007DCEB
:1033200083B16FF08060184470B1022818D111E0A9
:10333000B0F5007F10D0ED4C204448B1B0F5003F0F
:103340000ED10BE002230DE000230BE0002309E087
:10335000002307E0012305E0012303E0012301E04E
:10336000002300BF00BFD8B210BD21B1012907D092
:1033700002290FD109E0826842F0800282600AE0EF
:10338000826842F40042826005E0826842F40002F2
:10339000826000E000BF00BF704710B500F5D87331
:1033A00003EB01131B6803F004031372137A53B980
:1033B00000F5D87303EB01131B6840F2FF7404EAB5
:1033C0005353136009E000F5D87303EB01131B6836
:1033D0006FF0604404EAD303536000F5D87303EB45
:1033E00001131B6803F00203537200F5D87303EB5B
:1033F00001135B6803F00F03937200F5D87303EBBE
:1034000001135B681B0AD37400F5D87303EB011337
:103410009B68D37200F5D87303EB01139B681C0AF9
:10342000147300F5D87303EB01139B681C0C5473E1
:1034300000F5D87303EB01139B681B0E937300F523
:10344000D87303EB0113DB68D37300F5D87303EB78
:103450000113DB681C0A147400F5D87303EB011325
:10346000DB681C0C547400F5D87303EB0113DB68A4
:103470001B0E937421B9C36843F02003C36003E0BB
:10348000036943F02003036110BD21B9C26842F013
:103490002002C26003E0026942F02002026170472C
:1034A0000246002019B9D36803F0030006E00129A1
:1034B00003D1136903F0030000E00020704710B54A
:1034C00002460B4600204FF6FF71BBB9146824F08A
:1034D000020444F00104146000E0491E546804F042
:1034E0000304012C01D00029F7D1546804F003042F
:1034F000012C01D0002032E0012030E0012B13D15B
:10350000146824F00304146000E0491E546804F0B9
:1035100003040CB10029F8D1546804F003040CB181
:1035200000201CE001201AE0022B17D1146824F0BF
:10353000010444F00204146000E0491E546804F0E1
:103540000304022C01D00029F7D1546804F00304CD
:10355000022C01D0002002E0012000E0002010BD7C
:10356000014600200A6822F0010242F002020A60CD
:103570004A6802F00302022A00D101207047014686
:103580004FF6FF7200200B6823F002030B6000E08F
:10359000521E4B6803F00203022B01D1002AF7D11F
:1035A0004B6803F00203022B00D001207047014654
:1035B00000208A6902F070007047014600208A6985
:1035C000100E7047014600208A69C2F30740704719
:1035D0001AB143690B43436102E043698B43436182
:1035E000704710B50246002001F4700343B193699F
:1035F000C1F3130423400BB101202DE000202BE088
:1036000001F0807343B15368C1F3130423400BB13D
:10361000012021E000201FE001F0006343B1936826
:10362000C1F3130423400BB1012015E0002013E087
:1036300001F0007343B1D368C1F3130423400BB10D
:10364000012009E0002007E01369C1F313042340BF
:103650000BB1012000E0002010BD0022244B994254
:1036600002D10023836111E0C1F3130201F0007362
:103670000BB1C2600AE001F080630BB1026105E0AA
:1036800001F000630BB1826000E0426070470246C7
:10369000002002EA01030BB1012000E00020704786
:1036A00070B504460D46002660692840002872D097
:1036B000B5F5807F69D01DDC082D42D006DC012DD8
:1036C0002DD0022D31D0042D7FD134E0102D3ED0ED
:1036D000202D42D0402D78D145E0000003000004A9
:1036E0000003000800000310000100080001FFF7BC
:1036F0007000F030B5F5004F61D009DCB5F5007F02
:103700004AD0B5F5806F4DD0B5F5006F5DD150E072
:10371000B5F5803F2DD0B5F5003F56D12FE0A0681C
:103720005549FFF7B4FF064651E0E0680321FFF773
:10373000AEFF06464BE0E0680821FFF7A8FF06460B
:1037400045E0E0681021FFF7A2FF06463FE0206950
:103750000321FFF79CFF064639E020690821FFF7A7
:1037600096FF064633E020691021FFF790FF0646DA
:103770002DE060680821FFF78AFF064627E06068B1
:103780001021FFF784FF064621E0A0690121FFF721
:103790007EFF06461BE01BE0A0690221FFF777FFD2
:1037A000064614E0A0690421FFF771FF06460EE00B
:1037B0000BE0A0697021FFF76AFF064607E060682A
:1037C0000421FFF764FF064601E0002600BF00E089
:1037D0000026304670BDB1F5007F3AD00FDC2029BD
:1037E00028D006DC01291CD004291DD0082940D18D
:1037F0001DE0402921D0B1F5807F3AD126E0B1F516
:10380000004F31D006DCB1F5806F25D0B1F5006FE7
:103810002FD124E0B1F5803F12D0B1F5003F28D17F
:1038200011E0154A826025E00822C26022E01022E1
:10383000C2601FE0082202611CE01022026119E050
:103840000822426016E01022426013E00422426027
:1038500010E0042242600DE0042242600AE00022EF
:1038600082610422426005E00022826104224260FB
:1038700000E000BF00BF7047010101000E49086071
:1038800070470D49486070470B49886070474AF699
:10389000AA200949086070474CF6CC4006490860E8
:1038A000704701460020044AD2680A400AB101204C
:1038B00000E00020704700000030004080EA010274
:1038C00010B502F00043400022D04A001FD0010E84
:1038D00001EB1261C0F35600C2F3560240F400003F
:1038E00042F40002A0FB022000047F39140400D03F
:1038F000401C50EA124001D44000491EC2B20C06DE
:1039000004EBD010401C4008802A02D003E00020C5
:1039100010BD20F00100002900DA0020184310BD7E
:1039200030B480EA010202F0004530F0004221F09C
:10393000004013D090B1C30DD40DC2F31601C0F3F3
:103940001600E41A41F4000140F400027D34914273
:1039500001D3641C00E04900002C02DA30BC0020D6
:1039600070474FF400000023914201D3891A0343AA
:1039700040084FEA4101F7D151B1914202D14FF0D5
:10398000004105E002D24FF0010101E06FF00101BA
:1039900003EBC450284430BC00F0B7B82DE9F04D1B
:1039A00081EA030404F0004B21F0004514464FF077
:1039B000000A23F0004150EA050220D054EA010237
:1039C0001DD0C5F30A570246C5F31303C1F3130014
:1039D000C1F30A5640F4801543F48013A7EB0608A0
:1039E000101BD64608F2FD3873EB050002D308F130
:1039F000010801E092185B41B8F1000F03DA0020E2
:103A00000146BDE8F08D00204FF480110646844643
:103A10000EE0171B73EB050705D3121B63EB0503C1
:103A200006434CEA010C49084FEA300092185B410A
:103A300050EA0107EDD152EA030012D082EA0400F5
:103A400083EA0501084305D0101BAB4106D20122D1
:103A5000002306E000224FF0004302E06FF0010275
:103A600053101AEB06004CEB085110EB0A0041EB27
:103A70000B01BDE8F04D00F07FB8962300221146FF
:103A800000F04CB820F00040C10DC0F3160040F427
:103A900000007F2901DA00207047962903DCC1F17C
:103AA0009601C840704796398840704700F0004240
:103AB00030F000400AD0C10D01F56071C0F316006E
:103AC00042EA0151C20840071143704700200146F5
:103AD000704701F0004330B421F0004150EA010288
:103AE00006D00A0DA2F56072C1F31301002A02DCB0
:103AF00030BC00207047440F44EAC104C100E01804
:103B000030BC00EBC250AFF300800029A8BF704763
:103B1000401C490008BF20F00100704710B4B0FA03
:103B200080FC00FA0CF050EA010404BF10BC70479E
:103B300049B1CCF1200421FA04F411FA0CF118BFB8
:103B4000012121430843A3EB0C01CB1D4FEA006187
:103B50004FEA102042BF002010BC704700EBC3505A
:103B600010440029A4BF10BC7047401C490008BF86
:103B700020F0010010BC704710B5141E73F1000452
:103B800008DA401C41F1000192185B411A4301D14F
:103B900020F0010010BD2DE9F04D92469B4611B179
:103BA000B1FA81F202E0B0FA80F22032904600F0E1
:103BB00053F804460F4640EA0A0041EA0B01534617
:103BC0005A46084313D0114653EA010019D0C8F1F0
:103BD0004002504600F04FF805460E465046594602
:103BE000424600F039F8084305D0012004E02046A1
:103BF0003946BDE8F08D0020054346EAE0762C43C7
:103C000037430A986305E40AA0EB08000022FD0A86
:103C100044EA47540A3002D500200146E9E701058D
:103C200010196941DDE9084500196941BDE8F04D09
:103C3000A2E70000064C074D06E0E06840F00103F3
:103C400094E8070098471034AC42F6D3FCF774FAB6
:103C5000C83D0008E83D0008202A04DB203A00FAAD
:103C600002F1002070479140C2F1200320FA03F3D3
:103C7000194390407047202A04DB203A21FA02F0D1
:103C80000021704721FA02F3D040C2F12002914096
:103C900008431946704770B58C1810F8015B15F091
:103CA000070301D110F8013B2A1106D110F8012BAE
:103CB00003E010F8016B01F8016B5B1EF9D12B07D3
:103CC00005D40023521E0DD401F8013BFAE710F889
:103CD000013BCB1A921C03E013F8015B01F8015B76
:103CE000521EF9D5A142D8D3002070BD02E008C809
:103CF000121F08C1002AFAD170477047002001E066
:103D000001C1121F002AFBD17047000010B5002826
:103D100021D0114B0022001F196803E0814203D813
:103D20000A4649680029F9D152B11368841A9C42A5
:103D300004D1006818441060104602E0506000E0B2
:103D4000186039B102680B1A934203D10B681A4408
:103D500002604968416010BD34020020F0B50B30AC
:103D6000154D20F007010024144A0FE003688B4230
:103D70000BD38B4205D95E1A43184768C3E9006725
:103D800000E04368136002C004E0021D10680028D0
:103D9000ECD12046002802D1286808B10020F0BDEF
:103DA000064A07481060074A121A22F00702C0E9C3
:103DB000002401202860D7E73802002034020020C8
:103DC0000C03002008050020E83D0008000000204A
:103DD0003C020000963C0008D03E00083C02002057
:103DE000CC060000FC3C000832F923F30132212903
:103DF0000441300A05050102020304050623EE0210
:103E00002387032320041AB9042352051AEB041A4A
:103E1000841D23B6071B4F08101904238109231A98
:103E20000A1AB304234C0B1AE5044B800C08291022
:103E3000291829202928293029382940294829509A
:103E40001A53041A896029682970097A7841124B3B
:103E5000126912781288129712A612C512D412E4AF
:103E600012F3180A020111012101300140041A2144
:103E70000C1C0201F3181AD4201AA6281A88301232
:103E8000691A5A3A41824F1BA24A5A611808010224
:103E900003040607088A011B3201140C01405A2052
:103EA000085A40084A1008291F290839A72C100170
:103EB00040272908291F79088A08083920011B5939
:103EC000EF091A9119B669BAA502040608000000A4
:0400000508000131BD
:00000001FF
